:100000000C9472010C949A010C949A010C949A012C
:100010000C949A010C949A010C949A010C949A01F4
:100020000C949A010C949A010C94880F0C940F1064
:100030000C949A010C949A010C949A010C949A01D4
:100040000C949A010C949A010C949A010C949A01C4
:100050000C949A010C949A010C949A010C94340C0F
:100060000C949A010C949A010C949A010C949A01A4
:100070000C949A010C949A010C949A010C949A0194
:100080000C949A010C949A010C949A010C949A0184
:100090000C9456080C949A010C949A010C949A01B1
:1000A0000C949A010C949A010C949A01000000009F
:1000B000240027002A002D00300000000000250049
:1000C00028002B002E003100000000002300260035
:1000D00029002C002F000404040404030405020278
:1000E00002020403020202020606060606060404D1
:1000F00002020204040802011040804010204080E7
:10010000408008020401804020100201108010206D
:1001100040400000000200080E0000030401000B34
:1001200000000000070605040100080A0B0C0D0979
:100130000403090422035500530042002000490033
:100140004F00200042006F00610072006400200038
:100150002000200020001803410072006400750098
:1001600069006E006F0020004C004C00430012013B
:10017000000200000040412338800001010200011C
:1001800012010002020000404123388000010102F8
:10019000000100C18081C1080B00020202010009B8
:1001A00004000001020200000524001001052401E2
:1001B000010104240206052406000107058103103D
:1001C000004009040100020A000000070502024085
:1001D00000000705830240000005010902A1010992
:1001E00001A10085010509190129031500250195C3
:1001F0000375018102950175058103050109300927
:100200003109381581257F750895038106C0C00521
:10021000010906A1018502050719E029E715002556
:100220000175019508810295017508810395067590
:1002300008150025650507190029658100C0090416
:1002400002000103000000092101010001226500F4
:100250000705840340000100000000000000002AA0
:100260002B2800000000000000000000000000003B
:10027000000000000000002C9EB4A0A1A2A434A69F
:10028000A7A5AE362D3738271E1F2021222324256F
:1002900026B333B62EB7B89F8485868788898A8B24
:1002A0008C8D8E8F909192939495969798999A9B16
:1002B0009C9D2F3130A3AD350405060708090A0BB4
:1002C0000C0D0E0F101112131415161718191A1BF6
:1002D0001C1DAFB1B0B500008404F206160AC40EAE
:1002E000A211A71211241FBECFEFDAE0DEBFCDBFEF
:1002F00011E0A0E0B1E0E6E0F8E202C005900D9266
:10030000AA35B107D9F712E0AAE5B1E001C01D9204
:10031000AF3CB107E1F712E0C4EED2E004C022978F
:10032000FE010E94C613C83DD107C9F70E94D40D33
:100330000C9401140C940000FB01DC0102C001903C
:100340000D9241505040D8F70895AEE0B0E0EBEA8E
:10035000F1E00C94D8130D891E898F89988D97FF31
:1003600002C080E090E801979E838D831A83098301
:1003700086E08C839E01255E3F4FCE010196698DFC
:100380007A8DA9010E94D6014D815E8157FD0AC078
:100390002F813885421753070CF49A01020F131F5F
:1003A000F80110822E96E4E00C94F413ABE0B0E078
:1003B000ECEDF1E00C94CA133C012B015A01FC0155
:1003C00017821682838181FD03C06FEF7FEFC6C164
:1003D0009AE0892E1E010894211C311CF30123810F
:1003E000F20123FD859123FF81912F01882309F4D8
:1003F000B2C1853239F423FD859123FF81912F010C
:10040000853229F490E0B3010E94C903E7CF982F09
:10041000FF24EE249924FFE1FF15D0F09B3269F010
:100420009C3228F4903259F0933291F40EC09D32F0
:1004300049F0903369F441E024C052E0F52A84E0A9
:10044000F82A28C098E0F92A25C0E0E1FE2A22C057
:10045000F7FC29C0892F80538A3070F4F6FE05C05E
:10046000989C902C1124980E15C0E89CE02C112427
:10047000E80EF0E2FF2A0EC09E3229F4F6FC6BC1B2
:1004800040E4F42A07C09C3619F450E8F52A02C06B
:10049000983649F4F20123FD959123FF91912F01A4
:1004A000992309F0B8CF892F8554833018F08052F2
:1004B000833038F444E050E0A40EB51E5FE3598366
:1004C0000FC0933631F0933779F0933509F056C069
:1004D00020C0F5018081898342E050E0A40EB51E62
:1004E000610101E010E012C0F501C080D180F6FC8E
:1004F00003C06FEF7FEF02C0692D70E042E050E073
:10050000A40EB51EC6010E94BE038C015FE7F52252
:1005100014C0F501C080D180F6FC03C06FEF7FEFFF
:1005200002C0692D70E042E050E0A40EB51EC60185
:100530000E94B3038C0150E8F52AF3FE07C01AC0ED
:1005400080E290E0B3010E94C903EA948E2D90E00E
:1005500008171907A8F30EC0F601F7FC8591F7FEFE
:1005600081916F0190E0B3010E94C903E110EA9408
:10057000015010400115110579F7EAC0943611F0C9
:10058000993669F5F7FE08C0F50120813181428175
:10059000538184E090E00AC0F501808191819C0143
:1005A000442737FD4095542F82E090E0A80EB91EF5
:1005B0009FE6F92257FF09C0509540953095219547
:1005C0003F4F4F4F5F4FE0E8FE2ACA01B901A1013A
:1005D0002AE030E00E94F503D82ED21840C09537AB
:1005E00029F41F2D1F7E2AE030E01DC01F2D197F2A
:1005F0009F3661F0903720F4983509F0ACC00FC0F9
:10060000903739F0983709F0A6C004C028E030E0F0
:100610000AC0106114FD146020E130E004C014FD34
:10062000166020E132E017FF08C0F501608171819A
:100630008281938144E050E008C0F501808191817E
:10064000BC0180E090E042E050E0A40EB51EA101A4
:100650000E94F503D82ED2188FE7F82EF122F6FE6D
:100660000BC05EEFF522D91438F4F4FE07C0F2FC9B
:1006700005C08FEEF82202C01D2D01C0192DF4FE19
:100680000DC0FE01ED0DF11D8081803319F499EE4E
:10069000F92208C01F5FF2FE05C003C08F2D8678C7
:1006A00009F01F5F0F2DF3FC14C0F0FE0FC01E15E4
:1006B00010F09D2C0BC09D2C9E0C911A1E2D06C077
:1006C00080E290E0B3010E94C9031F5F1E15C0F3D2
:1006D00004C01E1510F4E11A01C0EE2404FF0FC07F
:1006E00080E390E0B3010E94C90302FF1DC001FD39
:1006F00003C088E790E00EC088E590E00BC0802F33
:10070000867891F001FF02C08BE201C080E2F7FC25
:100710008DE290E0B3010E94C90306C080E390E03F
:10072000B3010E94C9039A94D914C0F3DA94F10179
:10073000ED0DF11D808190E0B3010E94C903DD2021
:10074000A9F706C080E290E0B3010E94C903EA94D1
:10075000EE20C1F743CEF30166817781CB012B9662
:10076000E2E10C94E613FC01059061507040011029
:10077000D8F7809590958E0F9F1F0895FC016150CA
:10078000704001900110D8F7809590958E0F9F1FB3
:1007900008950F931F93CF93DF938C01EB018B810F
:1007A00081FF1BC082FF0DC02E813F818C819D8106
:1007B0002817390764F4E881F9810193F983E88304
:1007C00006C0E885F985802F0995892B31F48E8143
:1007D0009F8101969F838E8302C00FEF1FEFC80198
:1007E000DF91CF911F910F910895FA01AA27283028
:1007F00051F1203181F1E8946F936E7F6E5F7F4FEE
:100800008F4F9F4FAF4FB1E03ED0B4E03CD0670F69
:10081000781F891F9A1FA11D680F791F8A1F911DBC
:10082000A11D6A0F711D811D911DA11D20D009F40C
:1008300068943F912AE0269F11243019305D31934E
:10084000DEF6CF010895462F4770405D4193B3E037
:100850000FD0C9F7F6CF462F4F70405D4A3318F0DE
:10086000495D31FD4052419302D0A9F7EACFB4E08F
:10087000A6959795879577956795BA95C9F7009747
:100880006105710508959B01AC010A2E06945795E8
:10089000479537952795BA95C9F7620F731F841F3F
:1008A000951FA01D0895EF92FF920F931F93CF9372
:1008B000DF93EC01EC85FD8509957B018C01688354
:1008C00079838A839B838C819D81AE81BF81A801BE
:1008D0009701281B390B4A0B5B0B88859985AA85E4
:1008E000BB85281739074A075B0710F480E005C06D
:1008F000EC82FD820E831F8381E0DF91CF911F91F7
:100900000F91FF90EF9008958AE591E00E94940581
:100910008EE591E00E948B060895AF92BF92CF9230
:10092000DF92EF92FF920F931F93CF93DF93C1E07B
:10093000D0E020E0C22E21E0D22E95E0A92E91E059
:10094000B92E80E190E00E94FF0A182F092F2DB7E1
:100950003EB7285030400FB6F8943EBF0FBE2DBFB3
:10096000EDB7FEB73196ADB7BEB711968C939183B4
:1009700080E1E82EF12CF382E282D582C482D78313
:10098000C6830E94A5012DB73EB7285F3F4F0FB623
:10099000F8943EBF0FBE2DBF8EE591E0612F702F02
:1009A0000E942C068EE591E063E071E00E942C0627
:1009B0008AE591E06C2F0E949505ADB7BEB71A97F6
:1009C0000FB6F894BEBF0FBEADBFEDB7FEB7319600
:1009D00011961C930183F382E282D582C4826683DE
:1009E0007783808791870E94A5012DB73EB7265F48
:1009F0003F4F0FB6F8943EBF0FBE2DBF8EE591E07E
:100A0000612F702F0E942C068EE591E063E071E06B
:100A10000E942C068AE591E06C2F0E949505ADB7E7
:100A2000BEB71A970FB6F894BEBF0FBEADBFEDB7F5
:100A3000FEB7319611961C930183F382E282B58250
:100A4000A48266837783808791870E94A5012DB752
:100A50003EB7265F3F4F0FB6F8943EBF0FBE2DBF87
:100A60008EE591E0612F702F0E942C068EE591E0BB
:100A700068E071E00E942C06812F902F0E949C0B51
:100A80002196C330D10509F05CCFDF91CF911F9142
:100A90000F91FF90EF90DF90CF90BF90AF900895AF
:100AA00004C08AEB91E00E94CB068AEB91E00E94A1
:100AB000C206892BB1F708950E94500586E691E0A1
:100AC0000E945304882311F00E948D0408958AEB3C
:100AD00091E00E9492078CE79CE0909373018093D1
:100AE000720180ED97E0A0E0B0E080936E019093FA
:100AF0006F01A0937001B093710110926A0110927E
:100B00006B0110926C0110926D01109266011092AF
:100B1000670110926801109269018EE591E06AE028
:100B200071E00E942C0608950895CF92DF92EF9213
:100B3000FF920F931F93DF93CF9300D000D00F92BB
:100B4000CDB7DEB7D82EC92E623011F443E001C014
:100B500041E01A821B821C821D8285E392E063E2DF
:100B60000E94B20A64E670E080E090E00E948A0C85
:100B7000198285E392E063E24D2D5C2D24E08E0125
:100B80000F5F1F4FEE24FF240E94260ACE0102961B
:100B90006D2D7C2D0E94A2066A817B818C819D81B6
:100BA0000F900F900F900F900F90CF91DF911F91AA
:100BB0000F91FF90EF90DF90CF9008950F931F93C8
:100BC000DF93CF93CDB7DEB76E970FB6F894DEBF45
:100BD0000FBECDBF8C01FB01DC0117968C918B837E
:100BE0008BEA89832C831A82BE016B5F7F4FE40FEF
:100BF000F51FCB01BF01A9010E949C018DB79EB7D3
:100C00004E970FB6F8949EBF0FBE8DBFADB7BEB75F
:100C10001196FE0131968EE101900D928150E1F71F
:100C2000C8010E94D90AADB7BEB75E960FB6F89458
:100C3000BEBF0FBEADBF64E670E080E090E00E94F2
:100C40008A0C6E960FB6F894DEBF0FBECDBFCF9163
:100C5000DF911F910F9108958F929F92AF92BF9253
:100C6000CF92DF92EF92FF920F931F93CF93DF9378
:100C70004C01B62EA72EE62FF72FDF010D90002096
:100C8000E9F78D01015010400E1B1F0BC80168E1F0
:100C900070E00E94B013EB01CC24DD24EE24FF248D
:100CA0000FC0C4016B2D7A2DA70128E130E00E940E
:100CB000DE050894C11CD11C88E190E0E80EF91E05
:100CC000CC16DD0670F30931110510F440E009C0BF
:100CD000CE01880F991F8C0F9D1F482F440F440F82
:100CE000440FC80168E170E00E94B013282FC401CE
:100CF0006B2D7A2D50E030E00E94DE05DF91CF9120
:100D00001F910F91FF90EF90DF90CF90BF90AF9029
:100D10009F908F900895CF93DF93EC010E940C0A6F
:100D2000DE01E5E3F2E087E001900D928150E1F70A
:100D300084E392E060E070E00E94050A8F83DF9117
:100D4000CF910895CF93DF93FC01DB018C91DF01FC
:100D50008D93EB01898181838A8111968C93119700
:100D60008B8112968C9380E090E0DF91CF91089573
:100D700081E08093B901609396011092B7011092BF
:100D8000B80108952091950130E080919401281BCD
:100D90003109C90108954091940180919501481746
:100DA00018F02FEF3FEF0AC0E42FF0E0EC58FE4FB1
:100DB0008081282F30E04F5F40939401C90108954E
:100DC000E091940180919501E81718F0EFEFFFEFA3
:100DD00006C0F0E0EC58FE4F8081E82FF0E0CF0134
:100DE000089508951092BD011092BC0188EE93E021
:100DF000A0E0B0E08093BE019093BF01A093C0013A
:100E0000B093C1018EE291E09093BB018093BA014F
:100E10000895CF92DF92EF92FF920F931F93CF939B
:100E2000DF937C016B018A018091B9018823A1F0D5
:100E3000C0E0D0E00DC0D701ED91FC91D601AC0F20
:100E4000BD1F0190F081E02DC7016C91099521969D
:100E5000C017D10780F304C0CB01642F0E943B0868
:100E6000C801DF91CF911F910F91FF90EF90DF901C
:100E7000CF900895DF93CF930F92CDB7DEB7FC01EB
:100E800069838091B9018823C9F08091B8018032CB
:100E900038F081E090E09383828320E030E015C059
:100EA0008091B701E82FF0E0E956FE4F99819083D9
:100EB0008F5F8093B7018093B80105C0CE01019682
:100EC00061E00E943B0821E030E0C9010F90CF9122
:100ED000DF9108950F93062F8091960167E971E0E5
:100EE0004091B80121E00E94E6071092B7011092EC
:100EF000B8011092B9010F91089561E00E946A074C
:100F00000895413208F040E2862F64E771E00E94C4
:100F10009D071092940180939501089521E00E940D
:100F20008107089510929401109295011092B701D3
:100F30001092B8010E94E7090895382F413210F04D
:100F400040E042C08091C6018823E1F791E0909390
:100F5000C6012093C8018FEF809333021092EE01F7
:100F600041504093EF014F5F9093C7018091C701BB
:100F7000330F832B8093C7018091C901813041F4E5
:100F80001092C9018091C7018093BB0085EC01C01C
:100F900085EE8093BC008091C6018130E1F38091A1
:100FA000EE01841710F44091EE0120E030E00AC019
:100FB000FB01E20FF31FD901A253BE4F8C91808336
:100FC0002F5F3F4F2417A0F3842F08950F931F9393
:100FD000582F122F413210F081E04AC08091C60193
:100FE0008823E1F782E08093C6010093C8018FEF68
:100FF000809333021092EE014093EF01AEECB1E02A
:10100000FB0102C081918D938E2F861B8417D0F334
:101010001092C7018091C701550F852B8093C7019E
:101020008091C901813041F41092C9018091C701BA
:101030008093BB0085EC01C085EE8093BC0011233A
:1010400021F08091C6018230E1F3809133028F3F1D
:1010500011F480E00DC080913302803211F482E0FF
:1010600007C080913302803311F084E001C083E037
:101070001F910F910895482F613210F081E008957B
:101080008091C601843011F082E0089560931102CE
:10109000A0EFB1E0842F9C01F90102C081918D93F2
:1010A0008E2F841B8617D0F380E008951F920F9235
:1010B0000FB60F9211242F933F934F935F936F932B
:1010C0007F938F939F93AF93BF93EF93FF93809101
:1010D000B90090E0887F90708036910509F4F2C0E5
:1010E00081369105CCF58832910509F47BC08932AF
:1010F0009105B4F48031910509F46FC081319105F7
:101100003CF4009709F447C1089709F04FC165C046
:101110008831910509F466C0809709F047C182C003
:101120008034910509F4A4C08134910544F48033DE
:10113000910509F482C0C89709F038C189C080358B
:10114000910509F489C08835910509F496C0883461
:10115000910509F02BC1AEC08839910509F413C17E
:1011600089399105ECF48837910509F4ABC08937CA
:1011700091054CF48836910509F4A4C08037910597
:1011800009F014C19FC08838910509F4FCC080396A
:10119000910509F49DC08038910509F007C198C0F8
:1011A000803B910509F4C6C0813B91054CF4803A1F
:1011B000910509F49FC0883A910509F0F7C0BAC0BB
:1011C000803C910509F4E3C0883C910509F4DFC037
:1011D000883B910509F0EAC0C2C08091C7018093A5
:1011E000BB00CFC09091EE018091EF01981768F499
:1011F0009091EE01E92FF0E0E253FE4F8081809361
:10120000BB009F5F9093EE01BCC08091C801882312
:1012100009F44BC085ED8093BC008091BC0084FD37
:10122000FCCFC2C080E28093330285ED8093BC0086
:101230008091BC0084FDFCCFB7C080E38093330273
:1012400085ED8093BC008091BC0084FDFCCFACC0D8
:1012500088E3809333029BC08091EE019091BB00A4
:10126000E82FF0E0E253FE4F90838F5F8093EE0112
:101270009091EE018091EF0182C08091EE019091FA
:10128000BB00E82FF0E0E253FE4F90838F5F809326
:10129000EE018091C801882341F085ED8093BC0068
:1012A0008091BC0084FDFCCF7FC081E08093C901A8
:1012B00084EA6EC085ED8093BC008091BC0084FD03
:1012C000FCCF72C083E08093C6011092320259C0F5
:1012D00080913202803208F056C0809132029091A3
:1012E000BB00E82FF0E0EE5EFD4F90838F5F8093B0
:1012F000320247C080913202803230F4E0913202F3
:10130000F0E0EE5EFD4F108285ED8093BC00809191
:10131000BC0084FDFCCF1092C60160913202E091C6
:10132000CC01F091CD0182E192E070E0099510923C
:1013300032022DC084E08093C601109210021092F8
:101340001102E091CA01F091CB010995809111023F
:10135000882329F481E0809311021092F00190918A
:101360001002E92FF0E0E051FE4F80818093BB0036
:101370009F5F909310029091100280911102981734
:1013800010F485EC01C085E88093BC000FC085ECAB
:101390008093BC0009C01092330285ED8093BC009D
:1013A0008091BC0084FDFCCF1092C601FF91EF91AB
:1013B000BF91AF919F918F917F916F915F914F916D
:1013C0003F912F910F900FBE0F901F901895109284
:1013D000C60181E08093C8011092C90182E061E0FA
:1013E0000E94A10D83E061E00E94A10DE9EBF0E015
:1013F00080818E7F808380818D7F808388E480934D
:10140000B80085E48093BC000895F999FECF72BDC1
:1014100061BDF89A80B50895FC0112821182138291
:1014200014821582168284E0808308951092370218
:1014300010923602109238021092390210923A023B
:1014400010923B0284E0809335020895CF92DF92A0
:10145000EF92FF920F931F93CF93DF93F62EEA0143
:10146000E22E68018AEB91E00E94B8068AEB91E0D7
:101470006F2D4E2D0E948E0710E009C08AEB91E07F
:101480000E94CB06FE01E10FF11D80831F5F8AEBF6
:1014900091E00E94C206892B89F78AEB91E00E94B5
:1014A0007D07F60110831E1510F489EF12C08130FC
:1014B00049F0813048F0823019F0833049F406C099
:1014C0008BEF07C08CEF05C0812F03C08AEF01C0EE
:1014D0008FEFDF91CF911F910F91FF90EF90DF90F1
:1014E000CF900895CF92DF92EF92FF920F931F93C8
:1014F000CF93DF936A0179018AEB91E00E94B806ED
:1015000000E010E0C0E0D0E00BC0F601EC0FFD1FE2
:101510008AEB91E060810E943A07080F191F21961B
:10152000CE15DF0594F38AEB91E00E947D078130B0
:1015300049F0813048F0823019F0833049F406C018
:101540008BEF07C08CEF05C0802F03C08AEF01C06E
:101550008FEFDF91CF911F910F91FF90EF90DF9070
:10156000CF9008951F93142F8AEB91E00E94B80644
:101570008AEB91E0612F0E943A07892B11F48DEFDD
:1015800016C08AEB91E00E947D07813049F08130DE
:1015900028F0823039F0833049F406C081E007C07A
:1015A0008CEF05C08BEF03C08AEF01C08FEF1F9156
:1015B00008950F931F93DF93CF93CDB7DEB79C01B0
:1015C000ACE3B2E0FE0137968EE101900D928150BE
:1015D000E1F785E392E0F90160814CE352E02EE10E
:1015E00030E000E010E00E94720A8AEB91E00E9475
:1015F000F10680E0CF91DF911F910F9108950F9335
:101600001F93CF93DF93BC018230910510F462E009
:1016100070E0E091CD02F091CE02A0E0B0E040E0B9
:1016200050E024C08081918186179707D0F08617FB
:10163000970771F482819381109729F013969C93F8
:101640008E9312972CC09093CE028093CD0227C028
:101650004115510519F08417950718F4EF018D0114
:10166000AC01DF01828193819C01F9013097D1F6B1
:1016700041155105F9F0CA01861B970B843091057D
:1016800080F48A819B810115110521F0F801938373
:10169000828304C09093CE028093CD02FE013296E5
:1016A00045C0FE01E80FF91F61937193029799837A
:1016B00088833CC08091CB029091CC02892B41F46D
:1016C00080911C0190911D019093CC028093CB02DC
:1016D00040911E0150911F014115510541F44DB734
:1016E0005EB780911A0190911B01481B590B209104
:1016F000CB023091CC0224173507B0F4CA01821B0B
:10170000930B8617970780F0AB014E5F5F4F8417EE
:10171000950750F0420F531F5093CC024093CB02D9
:10172000F9016193719302C0E0E0F0E0CF01DF9135
:10173000CF911F910F910895CF93DF939C01009754
:1017400009F48FC0EC0122971B821A826091CD02AE
:101750007091CE026115710581F488819981820FA3
:10176000931F2091CB023091CC022817390739F50D
:10177000D093CC02C093CB0274C0DB0140E050E0B8
:10178000AC17BD0708F1BB83AA83FE0121913191FB
:10179000E20FF31FAE17BF0779F48D919C9111975B
:1017A000280F391F2E5F3F4F3983288312968D9162
:1017B0009C9113979B838A834115510571F4D093B3
:1017C000CE02C093CD024DC012968D919C9113977D
:1017D000AD01009711F0DC01D3CFDA011396DC9351
:1017E000CE931297FA0121913191E20FF31FCE1798
:1017F000DF0769F488819981280F391F2E5F3F4FD9
:10180000FA01318320838A819B8193838283E0E084
:10181000F0E0DB0112968D919C911397009719F0DF
:10182000BC01FD01F6CFAB014E5F5F4FDB018D9137
:101830009C91840F951F2091CB023091CC022817E8
:10184000390779F4309729F41092CE021092CD0224
:1018500002C013821282425050405093CC024093F7
:10186000CB02DF91CF9108951F920F920FB60F9286
:1018700011242F933F938F939F93AF93BF938091A6
:101880005E0290915F02A0916002B091610230917E
:1018900062020196A11DB11D232F2D5F2D3720F06F
:1018A0002D570196A11DB11D2093620280935E0207
:1018B00090935F02A0936002B093610280915A02FC
:1018C00090915B02A0915C02B0915D020196A11D16
:1018D000B11D80935A0290935B02A0935C02B09377
:1018E0005D02BF91AF919F918F913F912F910F908A
:1018F0000FBE0F901F9018958FB7F89420915E023D
:1019000030915F0240916002509161028FBFB90136
:10191000CA0108959B01AC017FB7F89480915A02E7
:1019200090915B02A0915C02B0915D0266B5A89BAC
:1019300005C06F3F19F00196A11DB11D7FBFBA2FE1
:10194000A92F982F8827860F911DA11DB11D62E038
:10195000880F991FAA1FBB1F6A95D1F7BC012DC024
:10196000FFB7F89480915A0290915B02A0915C02BB
:10197000B0915D02E6B5A89B05C0EF3F19F0019656
:10198000A11DB11DFFBFBA2FA92F982F88278E0F39
:10199000911DA11DB11DE2E0880F991FAA1FBB1F59
:1019A000EA95D1F7861B970B885E9340C8F22150C9
:1019B00030404040504068517C4F21153105410571
:1019C000510571F60895789484B5826084BD84B51C
:1019D000816084BD85B5826085BD85B5816085BD2A
:1019E000EEE6F0E0808181608083E1E8F0E0108243
:1019F000808182608083808181608083E0E8F0E084
:101A0000808181608083E1EBF0E08081846080836D
:101A1000E0EBF0E0808181608083E1E9F0E08081AB
:101A200082608083808181608083E0E9F0E0808152
:101A300081608083E1ECF0E080818460808380813C
:101A400082608083808181608083E3ECF0E080812C
:101A500081608083E0ECF0E0808182608083E2EC52
:101A6000F0E0808181608083EAE7F0E0808184603B
:101A70008083808182608083808181608083808197
:101A80008068808308958730C1F1883080F4833086
:101A9000F9F0843030F4813029F1823009F050C0FF
:101AA00024C08430C9F0863009F04AC022C08A3090
:101AB00091F18B3030F4883031F1893009F040C039
:101AC00026C08C3091F18C3060F18E30C9F533C076
:101AD000809180008F7703C0809180008F7D8093FC
:101AE0008000089584B58F7702C084B58F7D84BD52
:101AF00008958091B0008F7703C08091B0008F7DF2
:101B00008093B0000895809190008F7707C08091F6
:101B100090008F7D03C080919000877F809390001C
:101B200008958091C0008F7703C08091C0008F7DA1
:101B30008093C00008958091C200877F8093C20087
:101B40000895FF920F931F93F62E482F50E0CA017D
:101B50008E5E9E4FFC012491CA018C509F4FFC0168
:101B600014914A525F4FFA0104910023C9F02223D5
:101B700019F0822F0E94430DE02FF0E0EE0FFF1FBF
:101B8000E654FF4FA591B4919FB7F894FF2021F43C
:101B90008C911095812302C08C91812B8C939FBFD7
:101BA0001F910F91FF900895CF93DF930E94E30C54
:101BB0008BE692E00E94C50E0E946705C0E0D0E06F
:101BC0000E945C052097E1F30E940000F9CFCF92BC
:101BD000DF92EF92FF920F931F93CF93DF937C01DD
:101BE0006B018A01C0E0D0E00FC0D6016D916D019C
:101BF000D701ED91FC910190F081E02DC70109958D
:101C0000C80FD91F015010400115110571F7CE0101
:101C1000DF91CF911F910F91FF90EF90DF90CF90C8
:101C20000895282F809165028823C1F057FF1AC0BC
:101C300015C02898909364028091F1008193E21777
:101C4000F307B9F74115510539F08091F200882367
:101C500019F48BE68093E800AFBF02C04FEF5FEF4F
:101C6000CA010895AFB7F89427702093E9008091D6
:101C7000F200282F30E0241735070CF4A901FB01EE
:101C80009B01240F311D94E6DACFDF93CF930F929F
:101C9000CDB7DEB7BE016F5F7F4F41E050E00E94DD
:101CA000110E019719F02FEF3FEF03C08981282F04
:101CB00030E0C9010F90CF91DF910895FF920F930B
:101CC0001F93F82E142F052F40916802509169023E
:101CD000212F302FC901DC01FB016EEF29C0F7FE77
:101CE00002C0949101C090812091660230916702F8
:101CF00024173507ACF48091E8008570E1F38091FA
:101D0000E80082FF03C02FEF3FEF17C09093F10070
:101D1000C90101968F739070892B11F46093E800CC
:101D20002F5F3F4F309367022093660211973196E1
:101D30001097A9F6812F902F9C01C9011F910F9137
:101D4000FF9008959C018091E80082FFFCCFF9018B
:101D5000260F311D03C08091F1008193E217F30734
:101D6000D1F7289884E6809364028BEF8093E80093
:101D7000CB0108958093E9008091F200882319F047
:101D80008AE38093E800089508951092650281E047
:101D90008093D70080EA8093D80082E189BD09B49E
:101DA00000FEFDCF61E070E080E090E00E948A0CD0
:101DB00080E98093D8008CE08093E2001092E000EC
:101DC000559A209A08955F926F927F928F929F9278
:101DD000AF92BF92CF92DF92EF92FF920F931F9339
:101DE000CF93DF93E82E842E752E80916502882391
:101DF00071F18B01242F352FC901EC017AEFF72EF9
:101E000067E0962E9E2050E4552E8E2D90E040E205
:101E1000A42EB12CA822B9223AE3632E20E4C22ECC
:101E2000D12CC822D92258C09FB7F8949092E900CB
:101E30008091E80085FD02C020E004C08091F2009E
:101E4000252D281B9FBF222361F4FA9419F42FEF4C
:101E50003FEF4DC061E070E080E090E00E948A0CAE
:101E60003BC0822F90E0C817D9070CF42C2FC21B5F
:101E7000D1094FB7F8949092E900A114B10421F46C
:101E800006C01092F10021502223D9F719C0E7FCB7
:101E900003C0F801922F10C0C801322F06C0FC0108
:101EA0000196E491E093F10031503323C1F706C06D
:101EB00081918093F10091509923D1F7020F111D68
:101EC0008091E80085FF05C0209729F4C114D10452
:101ED00011F06092E8004FBF209709F0A5CF5D9800
:101EE00084E680936302282D372DC9019C01C90126
:101EF000DF91CF911F910F91FF90EF90DF90CF90E6
:101F0000BF90AF909F908F907F906F905F9008955B
:101F10001F920F920FB60F9211242F933F934F935E
:101F20005F936F937F938F939F93AF93BF93EF9341
:101F3000FF938091E1001092E100982F83FF0FC082
:101F40001092E90081E08093EB001092EC0082E3B4
:101F50008093ED001092650288E08093F00092FF7C
:101F600034C083E08093E9008091F200882319F067
:101F70008AE38093E8008FB7F89492E09093E900A9
:101F80009091F2008FBF992321F080EB92E00E94A4
:101F9000E51180916302882351F0809163028150A2
:101FA0008093630280916302882309F45D9A809193
:101FB0006402882351F0809164028150809364020E
:101FC00080916402882309F4289AFF91EF91BF91D0
:101FD000AF919F918F917F916F915F914F913F91C1
:101FE0002F910F900FBE0F901F9018950F931F9376
:101FF000DF93CF930F92CDB7DEB719828E010F5FBB
:102000001F4FC8010E940B12C8010E94A4138981AE
:1020100090E00F90CF91DF911F910F9108951F9243
:102020000F920FB60F921124EF92FF921F932F93EE
:102030003F934F935F936F937F938F939F93AF9350
:10204000BF93EF93FF93DF93CF93CDB7DEB7619745
:10205000DEBFCDBF1092E9008091E80083FF0FC181
:10206000FE0131969E01275F3F4F03C08091F10032
:102070008193E217F307D1F7289884E680936402EE
:1020800082EF8093E800998197FF05C08091E80076
:1020900080FFFCCF03C08EEF8093E800292F30E053
:1020A000C90180769070892B09F0C2C08A8188238B
:1020B00029F41092F1001092F100D6C0813009F499
:1020C000D3C0833009F4D0C0853049F48091E80052
:1020D00080FFFCCF8B8180688093E300C5C0863091
:1020E00009F07CC01C81EF80F8841230C1F5109299
:1020F000E900109267021092660210926902109233
:1021000068020E94F60F99E0FE013996DF01292F3F
:102110001D922A95E9F799871A8791E09E8790E8A2
:10212000988B9AEF998B2091660230916702275F16
:102130003F4F3C872B878D871092E90010926702F2
:1021400010926602F0926902E092680280E0BF019C
:1021500049E050E00E945E0E0E94F60F85C010928A
:10216000E9001092670210926602F0926902E09212
:102170006802123241F482E290E00E949C13892BA3
:1021800009F476C071C0113079F488E0E816F104E2
:1021900019F481E080936A0280916A02882309F031
:1021A0006BC0EEE6F1E013C0133009F061C08B8123
:1021B000882319F4E0E3F1E00AC0823019F4E4E383
:1021C000F1E005C0813009F053C0E6E5F1E044914B
:1021D00080E8BF0150E00E945E0E46C0873009F4DF
:1021E00047C0883021F481E08093F1003DC0893000
:1021F000D9F523703070232BD9F5E3E9F1E091E0B4
:1022000031E026E39093E9003093EB0084918093D2
:10221000EC002093ED009F5F3196953099F78EE7A3
:102220008093EA001092EA008B81809365021CC0C3
:102230008F8198851092E9001092670210926602D1
:1022400090936902809368028D81882329F4CE01DE
:1022500001960E94171206C0823051F4CE010196F9
:102260000E946D12882321F08EEF8093E80007C052
:1022700081E28093EB0003C0E0E8F1E0A8CF619633
:10228000DEBFCDBFCF91DF91FF91EF91BF91AF91B5
:102290009F918F917F916F915F914F913F912F917E
:1022A0001F91FF90EF900F900FBE0F901F90189509
:1022B0002091AC023091AD028091AE029091AF02BC
:1022C000281B390B2F733070C90108952091AC027F
:1022D0003091AD028091AE029091AF02281739077C
:1022E00019F42FEF3FEF09C0E091AE02F091AF0279
:1022F000E459FD4F8081282F30E0C90108952091D5
:10230000AC023091AD028091AE029091AF022817DD
:10231000390719F42FEF3FEF13C0E091AE02F091AF
:10232000AF02E459FD4F20818091AE029091AF023F
:1023300001968F7390709093AF028093AE0230E05D
:10234000C90108951092B3021092B20288EE93E090
:10235000A0E0B0E08093B4029093B502A093B602DF
:10236000B093B7028EE391E09093B1028093B002F4
:1023700008950F931F93DF93CF930F92CDB7DEB7DE
:102380008C01698380912701882369F083E0BE0175
:102390006F5F7F4F41E050E00E94E30E1816190670
:1023A00014F49C0107C081E090E0F80193838283DC
:1023B00020E030E0C9010F90CF91DF911F910F9184
:1023C000089583E00E94BA0E0895CF93DF9312C060
:1023D00082E00E94450E2FEF8F3F9207C9F0E091F7
:1023E000AC02F091AD02E459FD4F8083D093AD0271
:1023F000C093AC02C091AC02D091AD022196CF73D4
:10240000D0708091AE029091AF02C817D90701F742
:10241000DF91CF910895FC0180818E5F808380E8F9
:1024200067E971E042E450E00E945E0E0895FC010D
:1024300081819081913A59F4813209F04CC080E059
:1024400060E271E047E050E00E945E0E42C09132CF
:1024500009F041C0803239F480E291E067E070E039
:102460000E94A20E36C0823209F035C0828180936C
:1024700027018091200190912101A0912201B0912A
:102480002301805B9440A040B04019F58091270162
:1024900080FD12C087E797E79093010880930008BA
:1024A0002BE088E190E00FB6F894A8958093600047
:1024B0000FBE209360000DC088E10FB6F8948093A2
:1024C0006000109260000FBEA89510920108109253
:1024D000000881E0089580E00895FC0191818081E9
:1024E000813A31F4913089F080E0933089F40DC065
:1024F000813269F49B3021F482818093280105C0E8
:102500009A3029F482818093290181E0089580E046
:102510000895EF92FF920F931F938C01E62EDC013A
:10252000ED91FC910480F581E02D0995F82ED801FC
:10253000ED91FC910680F781E02DC8016E2D099583
:102540008F2D90E01F910F91FF90EF9008951092C2
:10255000BE021092C2021092C10280E591E09093F7
:10256000C0028093BF020895EF92FF920F931F93D2
:10257000DF93CF930F92CDB7DEB789838B017A01BA
:1025800084E0BE016F5F7F4F41E050E00E94E30EA8
:1025900084E4B801A7010E94E30E0F90CF91DF9170
:1025A0001F910F91FF90EF90089582E048E050E076
:1025B0000E94B4120895FC011682178210861186BB
:1025C0001286138614823496BF010E94D512089594
:1025D000DC01683810F0685829C0E62FF0E067FF8A
:1025E00013C0E058F04081E090E002C0880F991FCE
:1025F000EA95E2F7809514962C9114972823149667
:102600002C93149760E012C0E95AFD4F6491662341
:1026100019F420E030E01DC067FF08C014968C91CB
:1026200014978D7F14968C9314976F77FD0190E02B
:10263000662321F08681861709F416829F5F319602
:102640009630B1F7CD011496BD010E94D51221E05C
:1026500030E0C9010895CF93DF93DC01683810F0B2
:10266000685825C0E62FF0E067FF12C0E058F04040
:1026700081E090E002C0880F991FEA95E2F7149676
:102680002C911497282B14962C93149760E00FC06C
:10269000E95AFD4F64916623D9F167FF08C014968B
:1026A0008C911497826014968C9314976F7716967A
:1026B0008C9116978617A9F117968C911797861704
:1026C00081F118968C911897861759F119968C916B
:1026D0001997861731F11A968C911A97861709F176
:1026E0001B968C911B978617E1F0ED01E0E0F0E07E
:1026F0009E2F8E81882321F4EA0FFB1F668306C07C
:102700009F5F31962196E630F10591F7963049F4B6
:1027100081E090E013969C938E93129720E030E036
:1027200007C0CD011496BD010E94D51221E030E012
:10273000C901DF91CF91089580E869ED71E045E628
:1027400050E00E945E0E0895FC0180818F5F8083BF
:1027500080E86EE372E049E150E00E945E0E089569
:10276000AA1BBB1B51E107C0AA1FBB1FA617B707B7
:1027700010F0A61BB70B881F991F5A95A9F78095D3
:102780009095BC01CD010895EE0FFF1F0590F491C7
:10279000E02D09942F923F924F925F926F927F9219
:1027A0008F929F92AF92BF92CF92DF92EF92FF9261
:1027B0000F931F93CF93DF93CDB7DEB7CA1BDB0B0D
:1027C0000FB6F894DEBF0FBECDBF09942A883988B2
:1027D00048885F846E847D848C849B84AA84B984B9
:1027E000C884DF80EE80FD800C811B81AA81B981C5
:1027F000CE0FD11D0FB6F894DEBF0FBECDBFED01D9
:062800000895F894FFCFDB
:102806002564002C002566000A00547562652C6359
:10281600706D2C7553762F680A008000CF02000079
:1028260000E10000000000000101000000003A077E
:102836000907C206CB06E006F10600000000B91142
:10284600E70D58117F116611E111E5110000000036
:0A2856008912E70D2B13E812DB12C4
:00000001FF
